:020000022000DC
:1060000000000420596302008163020083630200E0
:1060100085630200876302008963020000000000BC
:106020000000000000000000000000008B63020080
:106030008D630200000000008F630200CDA2030008
:106040004D050500936302004564040069CA05001C
:1060500005C9050093630200C9BE050009FF0400DD
:1060600093630200C1B303009363020093630200D1
:1060700093630200E9C50500936302009363020085
:1060800011A303003DE80400936302009363020040
:106090001DE9040061CB0300C9DA04009363020028
:1060A0009363020093630200936302009363020010
:1060B00093630200936302000000000000000000F0
:1060C00093630200936302009363020093630200F0
:1060D000936302006900050093630200936302006A
:1060E00093630200936302009363020000000000C8
:1060F00000000000936302000000000093630200B0
:10610000000000000000000000000000000000008F
:10611000000000000000000000000000000000007F
:10612000000000000000000000000000000000006F
:10613000000000000000000000000000000000005F
:10614000000000000000000000000000000000004F
:10615000000000000000000000000000000000003F
:10616000000000000000000000000000000000002F
:10617000000000000000000000000000000000001F
:10618000000000000000000000000000000000000F
:1061900000000000000000000000000000000000FF
:1061A00000000000000000000000000000000000EF
:1061B00000000000000000000000000000000000DF
:1061C00000000000000000000000000000000000CF
:1061D00000000000000000000000000000000000BF
:1061E00000000000000000000000000000000000AF
:1061F000000000000000000000000000000000009F
:1062000010B5054C237833B9044B13B10448AFF3F0
:1062100000800123237010BDD83900200000000049
:10622000909F0600084B10B51BB108490848AFF312
:1062300000800848036803B910BD074B002BFBD052
:10624000BDE81040184700BF00000000DC39002006
:10625000909F0600C039002000000000154B002B65
:1062600008BF134B9D46A3F5803A00218B460F468D
:106270001348144A121A00F065F80F4B002B00D097
:1062800098470E4B002B00D09847002000210400B7
:106290000D000D48002802D00C48AFF3008000F03C
:1062A0002BF82000290014F025FE00F011F800BFA3
:1062B00000000800000004200000000000000000B2
:1062C000D8390020605D03200000000000000000BD
:1062D00008B5074B044613B10021AFF30080054B0E
:1062E0001868836A03B19847204600F033F800BF6E
:1062F00000000000CC0E060070B50E4B0E4CE41AE8
:10630000A41000251E46A54204D056F82530984713
:106310000135F8E73AF0CEFD084C094BE41AA41019
:1063200000251E46A54204D056F825309847013571
:10633000F8E770BDB8390020B8390020BC3900201A
:10634000B839002002440346934202D003F8011BEF
:10635000FAE77047FEE700BF0649074A074B9B1A5A
:1063600003DD043BC858D050FBDC2AF02FF9FFF7BF
:1063700075FF000028A0060020370020D839002033
:10638000FEE7FEE7FEE7FEE7FEE7FEE7FEE7FEE7E5
:10639000FEE7FEE783B2054A43EA00431360000CC0
:1063A000034B40EA00401860704700BF843700206C
:1063B0008837002010B5013810F8013F4BB14A680A
:1063C0008C68A2423CBF0C68A3544B6801334B60FD
:1063D000F2E710BDF7B555EC114B0022002311EE8A
:1063E000100A29468DED000B3AF070FAC0B99DED08
:1063F000000B22462B4651EC100B3AF01FF90F46CA
:1064000006463AF0A1FA39F089FF02460B463046BB
:10641000394639F035FE22462B4639F0E5FF01E0DA
:106420000020002141EC100B03B0F0BD70B500F06E
:106430000F04E40005460E4622460120002139F0F3
:106440000FFE421E3068EB0600EA020007D5013C51
:10645000012303FA04F4044218BF60EA020070BD8D
:106460002DE9F041064692B0282035F033F808B9FE
:1064700000203DE0204DA846FF272B68B3F902001D
:10648000292833D00EB312AC04F8447D34F00EF951
:1064900001460DF105003AF0FCFC22460021304691
:1064A00005F03CF8044610B936F05EFCE0E72CF04D
:1064B0005DFFE389A3F500739BB2E381E38903F4F5
:1064C000F05313B920462CF02BFB802035F002F856
:1064D0000028CDD0D8F80030B3F90230292BCCD029
:1064E0002C2034F0F7FF0028C6D1C1E734F0F2FFCA
:1064F00012B0BDE8F08100BF5C5D032070B50F4EA7
:106500000F497068002204F079FB054698B104F049
:10651000DBFC29460446706805F02EFBEB89A3F5E9
:1065200000739BB2EB81EB8903F4F05323B9284647
:106530002CF0F6FA00E070BD204670BD385D0320F7
:10654000D00E060070B51C4E1C497068002204F085
:1065500055FB054600B304F0B7FC294604467068B5
:1065600005F00AFBEB89A3F500739BB2EB81EB8985
:1065700003F4F05313B928462CF0D2FAFFF7BEFF0C
:10658000054620464DB12CF0AFFA38B12A460C49E9
:10659000204604F081FB01E070BD70BDEB89A3F5DE
:1065A00000739BB2EB81EB8903F4F05313B92846D7
:1065B0002CF0B6FA204670BD385D0320D70E0600D9
:1065C000DE0E0600034A138A23F03F031B041B0C54
:1065D00013827047385D032038B50E4B0146002208
:1065E000186804F08DFB054688B100220A4904F0C2
:1065F00087FBEB89A3F500739BB2EB81EB8903F476
:10660000F053044623B928462CF08AFA00E038BD3E
:10661000204638BD385D03207B5006002DE9F84345
:1066200006460F462CF03FF8002836D000225E497F
:10663000304604F065FB054638B95C48FFF7CCFFEF
:10664000054610B90020BDE8F883AE421AD00022FA
:106650003946284604F0D2FA044620B9394628467D
:10666000FFF7DCFF0446EB89A3F500739BB2EB81D7
:10667000EB8903F4F05313B928462CF051FA204665
:10668000BDE8F883F389A3F500739BB2F381F08929
:1066900010F4F054D6D13046EFE7304606F082FFD2
:1066A000DFF83C810446002CCCD000222146D8F8EB
:1066B000000004F0A3FA30B93D4920463AF0DFFB70
:1066C000002835D16AE004F003FC06462CF00CFAF1
:1066D000002865D000223749304604F011FB81467E
:1066E00000285DD00022394604F088FAB9F80E304F
:1066F000A3F500739BB2A9F80E30B9F80E3003F47D
:10670000F053054613B948462CF00AFA5EB1F389F6
:10671000A3F500739BB2F381F38903F4F05313B92B
:1067200030462CF0FDF9002DC6D02846BDE8F88390
:10673000214920463AF0A3FB80B3204920463AF095
:106740009EFB58B31E4920463AF099FB30B31D49D1
:1067500020463AF094FB08B31B4920463AF08FFBE1
:10676000E0B11A4920463AF08AFBB8B118492046F0
:106770003AF085FB90B1174920463AF080FB68B1AA
:10678000154920463AF07BFB40B120460749074CAB
:106790003AF075FB002808BF002484E70F4C84E71B
:1067A000002E89D00025B2E7EB0E0600E40E0600AD
:1067B000F50E06007B500600000F0600120F0600C3
:1067C0001C0F0600280F0600330F06003F0F0600BF
:1067D0004B0F0600560F0600630F060025840600C7
:1067E000385D032010B5084B98681C4630B9206806
:1067F000C38903F500739BB2C38110BD04F07CFB19
:106800000028F4D010BD00BF385D03202DE9F84307
:10681000134B9A6807461D4632B93946286800224C
:10682000BDE8F84304F0EAB990892BF051FE044624
:106830000028F2D0204604F047FB3946002281466A
:10684000B4F8068004F0DAF94946064620462DF0F1
:1068500014F80EB94046E8E73046BDE8F88300BFBB
:10686000385D032038B5074CA368054613B92BF0F3
:1068700069FDA060A06818B1294604F08BFD0120D5
:1068800038BD00BF385D032010B5094B98681C4621
:1068900050B1C389A3F500739BB2C381C38903F4CC
:1068A000F0530BB92CF03CF90023A36010BD00BFDE
:1068B000385D0320024B188AC0F30010704700BFF8
:1068C000385D032080B5034800AF87422CBF381ADB
:1068D000002080BD605D03202DE9F04F85B0924619
:1068E0001E4602460B4604460D46DDF838B00F9FA3
:1068F0003AF014F808B188491BE025F000494FF040
:10690000FF32864B204649463AF008F838B94FF036
:10691000FF32824B2046494639F0F6FF78B100221B
:1069200000232046294639F0D1FF08B17C4900E018
:106930007C49504605B0BDE8F04F3AF0AABA0022B3
:1069400000232046294639F0C1FF50B1013E00F036
:1069500083802D238AF8003005F100431D460AF19B
:10696000010A67A3D3E900232046294639F08AFBB0
:1069700039F0EAFF29468046204639F0E5FF01302C
:10698000804504D1404639F0C9FC04460D469FEDD0
:106990005E7B8DED007B584639F0C0FCDDE90023BD
:1069A000CDE9020139F020FD22462B46804689467A
:1069B00039F096FF10B1CDE90089ECE7D04600220E
:1069C000594BDDE90001C24639F094FF78B3DDE9A7
:1069D00000232046294639F031FE39F0B5FF8146C3
:1069E00039F09CFCDDE9002339F0FEFC02460B4641
:1069F0002046294639F044FB013E04460D4602D1AB
:106A000088F8006077E0B9F1090FD4BF09F13009C7
:106A100009F157095FFA89F9DDE9000108F8019BDE
:106A2000DDE9022339F00AFECDE90001C7E7002FB6
:106A300007DA002200232046294639F065FF08B90D
:106A400056E055D02B462246DDE9020139F0CCFC58
:106A500000258046894632E08AF800604BE0002F2E
:106A600046DD012F37D1314B00224046494639F0EF
:106A700009FB39F069FF044639F050FC02460B4629
:106A80004046494639F0FCFA02460B46DDE9020170
:106A900039F0AAFCA3458046894608BF0BF1FF34B4
:106AA000EDB1013ED8D0092CD4BF303457340AF1AF
:106AB0000103E4B28AF80040013F01259A4607F13C
:106AC0000B030A2BCBD80EA3D3E90023404649463B
:106AD00039F01AFF60B10EA3D3E90023C5E7013EE8
:106AE000BAD04FF02E038AF800300AF1010AD8E735
:106AF00000238AF8003005B0BDE8F08FAFF30080C6
:106B000048AFBC9AF2D77A3E000000000000F03F88
:106B10003A8C30E28E79453E700F0600FFFFEF7F22
:106B2000740F0600750F06000000F03F0000E03F04
:106B300030B52AB10028BFBF2D220A704042013172
:106B4000044601229C4203D3B4FBF3F40132F9E77B
:106B50000A441446B0FBF3F503FB15000928D4BF23
:106B600030305730C0B204F8010DA1422846F1D1AF
:106B70000023137030BD00002DE9F04FA84E93B0F4
:106B800004460D4699461378002B00F0AF81252B63
:106B900040F09E8192F801B0BBF1660F02F102084D
:106BA00000F0878037D8BBF14C0F75D028D8ABF1F7
:106BB0003001092900F29A81BBF1300F04BF02F1C4
:106BC000030892F802B098F800300CBFDFF878A202
:106BD000DFF878A2D9F80000782B07BF1023002235
:106BE0000A2301220AA9FFF7A3FF0AA83AF059F9DC
:106BF00009F10407ABF1300B08F10108814631E0DF
:106C0000BBF1630F6DD0BBF1640F33D0BBF1510FFB
:106C100040F06C816FE0BBF1730F5CD017D8BBF113
:106C2000700F00F04D81BBF1710F64D0BBF16A0FA2
:106C300040F05C818DE83000002340F625021946C3
:106C4000D9F8000009F104071BF0E6FA4BE1BBF1AB
:106C5000760F53D0BBF1780F11D0BBF1740F40F019
:106C600045811AE1D945294613DA5046A04709F172
:106C70000109F7E709F104070A23012203E009F1FA
:106C80000407102300220AA9D9F80000FFF750FFDB
:106C900029460AA8A04726E19378782B03BF02F182
:106CA000030810230022012218BF0A2309F1040758
:106CB000E9E70A224FF0FF338DE80C0009F10709DC
:106CC00029F0070920230AAAD9E9000109F10807D8
:106CD000FFF702FEDCE709F104072946D9F80000B6
:106CE000D8E7D9F800308DF82830002309F10407DF
:106CF0008DF82930CCE729464A48A047D9F800004A
:106D00002CF0B8FB4FF0000A09F104078DF829A018
:106D100081462BF0B6FD002800F0B9805246494666
:106D200005A801F0A3FDBBF1510F0CBF4FF0040A01
:106D30004FF0020A0AF1010302930AF102030393DE
:106D40000599069A914280F08380099A02B1525CBB
:106D50008DF82820BBF1760F5BD0082A4AD0092A8B
:106D60004AD00A2A4AD00B2A04D1BBF1510F15D0C0
:106D70002D484CE00C2A43D00D2A43D05C2A43D046
:106D8000222A43D0072A09D8BBF1510F06D030324E
:106D90005C21727000223170B27029E0A2F12001F2
:106DA000C9B25E2921D95C21BBF1510F317005BFF9
:106DB000752171707821302106BFB170F17071704A
:106DC000C2F30711092902F00F0294BF30313731A5
:106DD000029B092A94BF30323732C9B206F80A1032
:106DE000F254039B0022F25402E0002171703270D1
:106DF0000B480CE00D480AE00D4808E00D4806E09D
:106E00000D4804E00D4802E00D4800E00D48294619
:106E100001E029460AA8A04705A801F041FC8FE738
:106E2000F4390020940F0600870F06007E0F06003D
:106E3000810F0600840F06008A0F06008D0F0600E2
:106E4000900F0600930F0600079706001C8D0600A2
:106E5000089850B1C289A2F5007292B2C281C2896B
:106E600002F4F0520AB92BF05BFEB9F1000F0ED01C
:106E7000B9F80E20A2F5007292B2A9F80E20B9F866
:106E80000E2002F4F05212B948462BF049FEBBF135
:106E9000760F28D029461748FCE609F10407D9F8EF
:106EA000009048462BF0B0FB38B9484606F07AFB14
:106EB00020B948462BF05CFD00E00F482946E9E682
:106EC00099F800100AA809F1040711F0BFFADFE6EB
:106ED0008DF82830294600230AA802F101088DF810
:106EE0002930A0474F46B94642464CE613B0BDE8AC
:106EF000F08F00BF940F0600960F06000CB41FB56C
:106F000006AB002453F8042B019003910A48009328
:106F100001A90294FFF730FE039B0299019A99425E
:106F20002ABF9B18545403F8014C029804B0BDE8E2
:106F3000104002B0704700BFB56302000CB407B543
:106F400004AB53F8042B0193FFF716FE03B05DF872
:106F500004EB02B07047000010B58AB00146002271
:106F600005A8194C01F082FC05A801F023FB20685C
:106F700004ABC169806E03AA2BF0E1FE2368B3F86D
:106F800066301BB1039A013A13440393049B0093A8
:106F90000E4A039B0E4805A9FFF7D0FF22680C4854
:106FA000D269002305A933F015FC089850B1C389B4
:106FB000A3F500739BB2C381C38903F4F0530BB9EB
:106FC0002BF0AEFD0AB010BD5C5D03209B0F0600E8
:106FD000B9A2020070B5204C204906460122606823
:106FE00003F00CFE054670B1314603F039FAEB8927
:106FF000A3F500739BB2EB81EB8903F4F05313B953
:1070000028462BF08DFD238A9BB243F02003238278
:10701000134B1B68F3B1104B124958681B2203F045
:107020006FFE0546B0B1104903F01EFC2846FFF77D
:1070300093FFEB89A3F500739BB2EB81EB8903F41B
:10704000F05313B928462BF06BFD238A9BB243F013
:107050008003238270BD00BF385D0320D70E060079
:107060005C5D0320D00E0600AB0F06000EB470B5B9
:10707000384B1A8A12F0700687B0044664D111F0BA
:1070800095F81B202BF086F8054610B935F06CFEFC
:107090005AE00146324601A801F0E8FB01A801F0E0
:1070A00089FA0CAB2C480B9A009301A9FFF764FDF9
:1070B000049850B1C389A3F500739BB2C381C389FF
:1070C00003F4F0530BB92BF02BFD64B3012C03D167
:1070D00028460EF005FA16E0022C03D128460EF0E1
:1070E000F9F910E0032C03D128460EF0EDF90AE07F
:1070F000042C03D128460EF0E1F904E0052C04D15C
:1071000028460EF0D5F9044600E00024EB89A3F5EB
:1071100000739BB2EB81EB8903F4F05323B928464B
:107120002BF0FEFC00E02C462046FFF753FF5CB13D
:10713000E389A3F500739BB2E381E38903F4F05381
:1071400013B920462BF0ECFC07B0BDE8704003B04B
:10715000704700BF385D0320B9A2020008B5FFF7F1
:10716000B1FBB0F5007F0BD206490120FFF77EFF8F
:10717000054A138A9BB243F010031382002008BD16
:10718000012008BDB00F0600385D032010B5164C75
:10719000A06808B103683BB914490420FFF766FFF3
:1071A000BDE8104035F0E0BD04F04EFD50B1C3899C
:1071B000A3F500739BB2C381C38903F4F0530BB9E9
:1071C0002BF0AEFCA068038963B9C389A3F50073F3
:1071D0009BB2C381C38903F4F0530BB92BF0A0FC1D
:1071E0000023A36010BD00BF385D0320E40F06003C
:1071F0000FB437B506AC54F8045B10F0D7FF09485C
:1072000010F0FEFE23462A46002107480194FFF7AE
:10721000B3FC064810F0F4FE03B0BDE8304004B003
:10722000704700BFFC0F0600018003001F8D0600A1
:107230002DE9F04F0646B3B08A4649B1002861D027
:10724000C3899BB223F03F0343F00803C38125E0C9
:107250007B2034F03FF9002800F03682A54C2368EB
:10726000B3F90230832B08D133F020FAA24939F068
:1072700006FE10B9A148FFF7BBFF002E00F01D82EB
:107280002368B3F90230AB2B08D1F3899BB223F00A
:107290003F0343F00803F38133F0B4FB954C2368BC
:1072A000B3F8667037B133F0D9F92368B3F8667074
:1072B0003844471E21680CA8043134F0B5F9BAF1FE
:1072C000000F26D1DFF82C8200254FF0FF34D8F8CC
:1072D0000020B2F90230002B00F0E48175B17B2B65
:1072E00001D1013503E07D2B08BF05F1FF35D46ED8
:1072F000536F1C44013C33F085FBE8E77D2B40F0E5
:10730000CD81CFE17B4B19680CA8043134F08CF9A6
:1073100037467B4C258A0023ADB2238209F0E4F97D
:1073200050B1C389A3F500739BB2C381C38903F431
:10733000F0530BB92BF0F4FB2582002E00F0B9813D
:107340006C4B1B68DC685B681C44013C002C40F300
:107350009B81DFF8A091D9F80030986E2BF0E3F90B
:107360004D46804668B1D9F800200E980C9B926E6D
:1073700003441068013BE11A18442AF0CFFF80460D
:107380005CE1604B1B789B0740F1BE80D9F8009010
:1073900012ABD9F868002B6034F018F90CA834F05F
:1073A000DDF8631CC34601932968B1F9020028B3D4
:1073B0004A6FCB6E1344019A93421FD8A0F1800C00
:1073C0001FFA8CFCBCF1020F07D8A8F18008B8F1B5
:1073D000020F07D80BF1010B04E0BCF1030F01D938
:1073E000852805D1CA689B1A4A689B1A9B4401E00C
:1073F0000BF1010B804633F005FBD5E70021584621
:107400002BF08AFD804600286ED00146002202A89B
:1074100001F02CFA0CA834F0A1F84FF0000B013465
:107420002968B1F90230002B51D0486FCA6E02446E
:10743000A2424CD8803B9BB2022B08D8ABF1800B08
:10744000BBF1020F03D8202102A801F0A1F92A689C
:10745000B2F90210A1F180039BB2032B01D9852957
:107460002BD1117E02A801F093F9296807A80431F5
:1074700001F0ECF929680798099BD1F874E0CA6E0D
:10748000034401337244934209D20B9901B1095C60
:1074900002A801F07DF907A801F002F9EAE70A98CD
:1074A00078B1C389A3F500739BB2C381C38903F488
:1074B000F05333B92BF034FB03E0C9B202A801F05A
:1074C00067F92B68B3F902B033F09CFAA8E7059886
:1074D00050B1C389A3F500739BB2C381C38903F480
:1074E000F0530BB92BF01CFB33F04CFAC5F80090AD
:1074F000A4E000BF5C5D0320061006000F1006002C
:10750000385D03206C3C00200C9B0E9A1344C3F1A1
:1075100001031C44162C20D920462AF04BFF80463C
:10752000D8B12BF016F905469DF8443005F8013B1B
:1075300081460CA912A801F089F94C44129A139BB8
:107540009A426ED2AC426CD0169B03B19B5C05F89C
:10755000013B12A801F0A4F8F0E71B202AF01AFE64
:10756000804600286AD0C38903F500739BB2C381AB
:107570009DF8443003700CA912A801F067F9454644
:107580004FF0010B1299139A914211D35946284694
:107590002AF0ACFFEB89A3F500739BB2EB81EB897A
:1075A00003F4F053002B3CD128462BF0B9FA38E015
:1075B000013CEBD0169A12B112F8019000E091460E
:1075C00028462BF03DF9584520D8284659462AF040
:1075D0008DFF28202AF0DEFD0028D7D03C4BC31AAF
:1075E0001B110133AB81EB89A3F500739BB2EB81D7
:1075F000EB8913F4F05B06D1019028462BF090FA4A
:10760000019A154602E005464FF0000B0BF101020E
:1076100005F80B9012A8019201F042F8019A9346E6
:10762000B0E7159850B1C389A3F500739BB2C3812D
:10763000C38903F4F0530BB92BF072FA254A414683
:10764000304603F06BFF41462CF017F9224B986847
:1076500060B1012103F074FF044638B101461F4AAE
:10766000304603F05BFF21462CF007F967B138463E
:107670002AF000FE044638B10146194A304603F0AC
:107680004DFF21462CF0F9F80CA833F0D5FFBAF1E4
:10769000000F19D17D2033F01DFF15E07B2B7FF407
:1076A00026AE1EE6002E7FF451AE0CA833F0C4FFC8
:1076B000F0E70CA833F0C0FF06E021680CA8043105
:1076C00033F0B2FF3746FDE5002033B0BDE8F08F60
:1076D000F84F002047100600385D03204C100600CC
:1076E0005110060070B51B4B1B8A03F03F03012BA2
:1076F000054604D107202AF04DFD044600E0002491
:107700007DB1154B1B68B3F90230802B08D11CB139
:1077100032F0B6FF054600E0254633F073F900E08D
:1077200000252046FEF79CFE064628B9284621463D
:107730002CF0A3F8304670BD00212046FFF778FDFD
:107740002CB125B12A460549204603F0C7FA204648
:1077500070BD00BF385D03205C5D0320561006003D
:107760000FB437B506AC54F8045B10F01FFD0948A0
:1077700010F046FC23462A46002107480194FFF7F3
:10778000FBF9064810F03CFC03B0BDE8304004B003
:10779000704700BF5B100600018003001F8D0600CC
:1077A0002DE9F04FB1B007460993DDF8E8900C469B
:1077B00009B98047D7E0012903D131B0BDE8F04FC6
:1077C0000047B1F5004F02D11046B847EAE00B047C
:1077D0004FF0000B01F0070846BF0C924FF0010A72
:1077E0004FF0000AC1F3CB045D465E4614F0070279
:1077F00067D04D45B6BF099B002153F82510062AD6
:1078000005F101054ED0BAF10B0F06DD67480B926A
:107810000A91FFF7A5FF0B9A0A99013A052A4ED85B
:10782000DFE802F00309242B324330AB03EB8A027A
:1078300042F8901C17E00A912AF084FD0A99064646
:1078400060B14D450ADC304603F0A4FD4D45B6BF9E
:10785000099B002153F825100135F2E730AB03EB0B
:107860008A0242F8906C0AF1010A28E00AF101024A
:1078700008460A9204F0E2FA0CE00AF10102084616
:107880000A9203F0E5FB05E00AF1010208460A92BC
:1078900010F01EFE30AB03EB8A030A9A43F8900CFB
:1078A00092460CE0BAF10A0FB0DC084603F044FB44
:1078B00030AB03EBCB0202ED180B0BF1010BE4082C
:1078C00094E7BAF1040F1ADC0CA80FC8BBF1000F43
:1078D0000ED0B8F1060F9DED1E3B9DED1C2B9DEDCE
:1078E0001A1B9DED180B01D1B8471EE0B84721E0E7
:1078F000B8F1060F01D1B84717E0B8471AE014A84D
:1079000090E83140119B1399129A0193109B0490B7
:10791000CDF81CE0069505940391029200930CA803
:10792000B8F1060F0FC804D1B84755EC104B26B973
:1079300031E0B847044600255EB1F389A3F5007332
:107940009BB2F381F38903F4F05313B930462BF063
:10795000E7F808F1FF38B8F1050F23D8DFE808F0A1
:10796000030305150F1B20461DE054EA050314BF51
:107970000120002031B0BDE8F04F2AF073BCE0B226
:1079800031B0BDE8F04F2AF0F3BC204631B0BDE87D
:10799000F04F2AF06FBC45EC104B31B0BDE8F04F12
:1079A0002AF056BC002031B0BDE8F08F631006000D
:1079B000A0F13003DAB2092A01D818467047A0F1C5
:1079C0006103192B01D857387047A0F14103192BD7
:1079D00094BF37384FF0FF30704710B5FFF7E8FF1E
:1079E00004460846FFF7E4FF002C04DB002802DB16
:1079F00040EA041010BD4FF0FF3010BD03681A7844
:107A0000302A29D15A1C02605A7802F0DF024F2A2C
:107A100003D10233036008207047582A03D1023390
:107A2000036010207047422A01D0082006E002338C
:107A30000360022070472E2A05D10A2013F8012F77
:107A4000002AF8D107E0A2F138010129F5D9303A2E
:107A5000092AF3D9704770470A20704720F02003A5
:107A6000413B192B04D9A0F15F035842584170479C
:107A700001207047A0F10903042B04D9A0F12003D1
:107A8000584258417047012070472DE9F74F17467B
:107A900001901E46019A14782046FFF7EBFF10B1C3
:107AA00001320192F6E72D2C04D1013201924FF000
:107AB000010B04E02B2C04BF013201928346DDF858
:107AC00004A00EB1C6F800A029B9394601A8FFF7F5
:107AD00095FF014678B3002400254FEAE179019B28
:107AE000187828B10093FFF763FF0028009B09DA9C
:107AF000C7B1C3EB0A02D2F1000A4AEB020A87F8C7
:107B000000A00FE08842F3DA01FB05F204FB092232
:107B1000A1FB04451544241803F1010345EBE0756E
:107B20000193DCE706B13360BBF1000F06D0604281
:107B300065EB450104E00020002101E020462946D4
:107B400003B0BDE8F08F00231A461946FFF79DBF2A
:107B5000F0B40B7803700B78013B07460E46032BFD
:107B600024D8DFE803F01E0B1402CB68C3608A68D8
:107B7000D38903F500739BB2D381826072687A6007
:107B8000A2B1D38903F500739BB2D3810EE00D1D22
:107B9000041D0FCD0FC40FCD0FC495E8030084E87A
:107BA0000300311D381DF0BC00F050BEF0BC704722
:107BB00008B50378013B032B1CD8DFE803F00F075F
:107BC0001302C068BDE808402AF054BB406890B179
:107BD000C38903F500739BB2C38108BDC2684068C6
:107BE000104400E0406A2AF045FB0021BDE808404F
:107BF0002BF0B4BA002008BDF8B5044608460D467F
:107C000016462AF046FD30B10223237028462AF09A
:107C100040FD88B91CE028462AF045FD0028F3D134
:107C200028462AF05CFD0028EED128462AF097FC71
:107C300007460028E8D111E0F30709D50423237093
:107C40000023E360EB8903F500739BB2EB81A56031
:107C50002946201DBDE8F84000F054BC28462AF013
:107C6000FAFC064648B12046032300F8043B3A4696
:107C70002946BDE8F84000F01FBE28462AF013FE52
:107C800048B12046012300F8043B32462946BDE8AE
:107C9000F84000F0EBBD2070F8BD838A63B1C06886
:107CA00050B1C389A3F500739BB2C381C38903F4A8
:107CB000F0530BB92AF034BF704710B50378013B7D
:107CC0000446032B26D8DFE803F0110F200280685A
:107CD00050B1C389A3F500739BB2C381C38903F478
:107CE000F0530BB92AF01CFF606800E0006988B10E
:107CF000C389A3F500739BB2C381C38903F4F05316
:107D000043B9BDE810402AF00BBF0430BDE8104075
:107D1000FFF7C3BF10BD38B5036A858A013303621C
:107D2000C36905F00F052B44C36190F82430044665
:107D300033B925B1204600F0B3FC013DF9E738BD69
:107D4000002380F8243038BD10B50378013B044689
:107D5000032B1FD8DFE803F0140F1902C3680133A7
:107D6000C36040682AF09FFEA0B1606803F070F91C
:107D7000E36898420EDA201DBDE8104000F0ADBB6C
:107D80000430BDE8104000F08BBC0430BDE810406A
:107D9000FFF7C1BF10BD828A62B190F8243053B999
:107DA000C369806902F00F02134483428CBF002331
:107DB000012300E01346184670470378013B032B6C
:107DC0001BD8DFE803F0100B1702C368806800B10E
:107DD00000688342ACBF002001207047406800303B
:107DE00018BF012070474368806883422CBF002081
:107DF000012070470430FFF7CEBF00207047838A10
:107E000003F00F03012B01D100F00EBD7047F7B551
:107E100006460846B78A002F4ED007F02004A4B2C9
:107E200007F00F0574B103F087F8042D51EC100B27
:107E300003D138F0D1FD009016E0082D14D18DED5E
:107E4000000B11E003F004F97B0606D5002803DBE4
:107E5000FF28A8BFFF2000E02046082D03D1C1174E
:107E6000CDE9000100E00090B48A04F48074A4B26B
:107E7000DCB16C1E6F466C44E31B013317D014F861
:107E80000119304600F0D0FC012DF5D0304600F04D
:107E900007FCF1E71DF80410304600F0C5FC012D89
:107EA00002D0304600F0FCFB0134AC42F2DB012D85
:107EB00002D0012386F8243003B0F0BD70B50378FA
:107EC000013B86B004460D46032B57D8DFE803F08C
:107ED0001D172C0240682AF0E6FD50B1606803F0DF
:107EE000B7F8E368984204D1606810B1294602F0FF
:107EF000B7FA2A46E168A06803F0E9FA3EE0406874
:107F000000283BD002F0ACFA38E0084604342AF0EE
:107F1000B8FC08B1297803E0284603F099F8C1B20B
:107F2000204600F081FC29E0061D314601A800F042
:107F30008DFC30462946FFF76AFF206950B1C3899E
:107F4000A3F500739BB2C381C38903F4F0530BB94B
:107F50002AF0E6FD304601A900F078FC049850B103
:107F6000C389A3F500739BB2C381C38903F4F053A3
:107F70000BB92AF0D5FD002384F82830284606B036
:107F800070BD73B505460846AA8A002A38D002F0AB
:107F900020039BB202F00F047BB138F0BFF9042C30
:107FA00002460B4604D138F017FD0090002620E071
:107FB000082CFBD1CDE90023F8E7520606D50029AD
:107FC00003DBFF29A8BFFF2000E01846082C03D1DF
:107FD000C117CDE90001E9E70090E7E71DF80610B9
:107FE000284600F021FC012C02D0284600F058FB66
:107FF0000136A642F2D3012C1CBF012385F82430A0
:1080000002B070BD13B5838A0446C3B1694600F05F
:108010008DFBA08A83060CD500F00F00042803D145
:10802000009838F08DF90CE0082808D1DDE900014E
:1080300007E06946FEF7FAF938F070F901E0002030
:10804000002102B010BD000010B50378013B0446CA
:10805000032B21D8DFE803F0140C1B0240682AF040
:1080600022FDC8B1606802F0F3FFE368984213D1C3
:10807000606808B102F028FFBDE8104002F0CEBFF2
:10808000406908B16368C05C38F038F910BD04304D
:10809000BDE81040FFF7B6BF0020014910BD00BF8A
:1080A0000000F87F13B5838A0446DBB1694600F00F
:1080B0003DFBA08A830611D500F00F00042803D1F0
:1080C000009838F03DF906E0082802D1DDE900010A
:1080D00001E00020002138F037FC04E06946FEF79B
:1080E000A5F900E0184602B010BD10B50378013BB9
:1080F0000446032B32D8DFE803F027172C02406830
:108100002AF037FA28B1606802F0A2FFE3689842CB
:108110000ED060682AF0C7FC00B3606802F098FFD8
:10812000E36898421AD107E040682AF022FA18B1B1
:108130006368B3F9080010BD606808B102F0C4FEBE
:10814000BDE8104003F004BD406940B16368C05C05
:1081500010BD0430BDE81040FFF7A4BF002010BDE3
:1081600037B5838A044653B3694600F0DFFAA48A20
:1081700004F02005ADB29DB104F00F04042C03D12E
:10818000009838F0DDF806E0082C02D1DDE90001A6
:1081900001E00020002141EC100B2AF059F80FE01B
:1081A0002046694624F48074FEF740F9042C03D17C
:1081B00029462AF0E9F803E02AF05CF800E01846C6
:1081C00003B030BDF0B50378013B87B00446032B04
:1081D00043D8DFE803F0130D220240682AF063FC65
:1081E00000283AD0606802F033FFE368984234D147
:1081F0006068002831D002F067FE2FE0426900235A
:1082000012B14168525C00E01A4601A88DF80420C2
:108210008DF805302BF0DEF820E0051D294601A879
:1082200000F014FB2846FFF79BFF0746206950B17A
:10823000C389A3F500739BB2C381C38903F4F053D0
:108240000BB92AF06DFC01AE0FCE0FC533682B6061
:10825000002384F82830384600E0002007B0F0BD45
:108260004B688A6893423CBF0A68D0544B6801331C
:108270004B6070471368194411607047F8B5214F7F
:10828000044600262268002A3BD063689A4238D30D
:10829000D21A2260A268E0681344A36040B38589C3
:1082A000DDB1013D07EB0515EB8903F500739BB2CA
:1082B000EB81E06850B1C389A3F500739BB2C38121
:1082C000C38903F4F0530BB92AF02AFCE560256159
:1082D00028462AF029F96060D4E7C389A3F5007322
:1082E0009BB2C381C38903F4F0530BB92AF018FC85
:1082F000A2682368E660134426616660A360266076
:10830000C0E7F8BDF84F002010B504462AF0B9FACE
:1083100070B12378FF2B01D1012009E006492046E6
:1083200002F068FC0028F7D10449204602F062FC04
:1083300000F0010010BD00BFEB0E06008F4A0600E2
:1083400010B504462AF09DFA10B12378FF2B03D014
:1083500020462AF0ECFA00E0012000F0010010BDF8
:1083600088422DE9F04705460F4666D0C389DA05F5
:1083700066D4C3899BB243F48073C3812AF075F934
:1083800010B94FF0FF341FE02E89002EF9D02E4B8C
:10839000013E03EB06163946F38903F500739BB2E1
:1083A000F3813046FFF7DCFFF389A3F500739BB23E
:1083B000F381F38903F4F053044613B930462AF0ED
:1083C000AFFB002CDDDB013428462AF08DFB58B3CF
:1083D000DFF874802E89C14636B3013E360106EBC4
:1083E000080A3946BAF80E3003F500739BB2AAF8B2
:1083F0000E305046FFF7B4FF002804DB631C01D0A9
:10840000844200DD441C09EB0603DA899E88A2F54C
:10841000007292B2DA81DB8903F4F053002BDBD1D6
:1084200050462AF07DFBD7E7EB8923F480731B04C9
:108430001B0CEB812046BDE8F0870020BDE8F087EB
:108440004FF0FF30BDE8F087F84F002010B588B03E
:108450000C462022694632F035F922466946034827
:10846000FFF77EF9002008B010BD00BF9410060091
:1084700038B5002204460D4602F0C9FE28B9294647
:108480002046BDE8384002F085BFC389A3F50073DC
:108490009BB2C381C38903F4F0531BB9BDE83840D4
:1084A0002AF03EBB38BD38B504460846216899B16C
:1084B0008D8803F061FB206850B1C389A3F5007378
:1084C0009BB2C381C38903F4F0530BB92AF028FB94
:1084D000284629F0FDFF206038BD38B50446006805
:1084E00078B1C3898588A3F500739BB2C381C38922
:1084F00003F4F0530BB92AF013FB284629F0E8FFE8
:10850000206038BD10B50446088929F0E1FF2060DD
:1085100010BD000070B50446C0680D46002845D067
:10852000636813B123680133236026682AF088F951
:10853000864230D3282029F02DFE0646E06886B911
:1085400050B1C389A3F500739BB2C381C38903F4FF
:10855000F0530BB92AF0E4FA0023E36023612360AF
:1085600070BD134BF31A1B1101338381E06850B1C6
:10857000C389A3F500739BB2C381C38903F4F0538D
:108580000BB92AF0CDFAA2682368E6601344A36011
:1085900000232661236022692368D5542168E0689E
:1085A00001316160BDE8704029F0A0BF70BD00BF1F
:1085B000F84F002070B5154E0446E3689D89F5B16B
:1085C000013D06EB0515EB8903F500739BB2EB81CA
:1085D000E06850B1C389A3F500739BB2C381C3891E
:1085E00003F4F0530BB92AF09BFAA2686368E560C4
:1085F0001344A360284629F097FF6060DDE72361FC
:10860000636803B1013B236070BD00BFF84F0020D9
:1086100038B504460069236803440B6094E80A00F7
:108620005B1A1360002263682260A268E06813444A
:10863000A36048B38589E5B1184B013D03EB0515EF
:10864000EB8903F500739BB2EB81E06850B1C389FD
:10865000A3F500739BB2C381C38903F4F0530BB934
:108660002AF05EFAE5602561284629F05DFF60602A
:1086700038BDC389A3F500739BB2C381C38903F4DA
:10868000F0530BB92AF04CFAA168226800230A447F
:10869000E36023616360A260236038BDF84F00206F
:1086A00038B503684268013393420446036039D306
:1086B0009B1A036083681A448260C06848B3858946
:1086C000E5B1194B013D03EB0515EB8903F500738B
:1086D0009BB2EB81E06850B1C389A3F500739BB2F4
:1086E000C381C38903F4F0530BB92AF019FAE5608A
:1086F0002561284629F018FF606038BDC389A3F5BD
:1087000000739BB2C381C38903F4F0530BB92AF001
:1087100007FAA168226800230A44E36023616360CA
:10872000A260236038BD00BFF84F0020F8B5838AEF
:1087300004460D4653B303F00F06DB0501D40F4684
:108740001BE0771E0F444D1EBD4219D023690BB1AB
:1087500022689B5C07F80139012EF5D02046FFF70F
:108760009FFFF1E723690BB122689B5C07F8013B8F
:10877000012E02D02046FFF793FF7B1B9E42F1DCC7
:10878000012E00D1F8BD012384F82430F8BD00008B
:1087900038B50368426893423CBF0269D15403680C
:1087A0004268013393420446036039D39B1A036045
:1087B00083681A448260C06848B38589E5B1194B63
:1087C000013D03EB0515EB8903F500739BB2EB81CB
:1087D000E06850B1C389A3F500739BB2C381C3891C
:1087E00003F4F0530BB92AF09BF9E56025612846A4
:1087F00029F09AFE606038BDC389A3F500739BB26F
:10880000C381C38903F4F0530BB92AF089F9A16835
:10881000226800230A44E36023616360A26023604E
:1088200038BD00BFF84F00204268036893423CBF48
:108830000269D154704702692AB1036841688B42CA
:1088400001D2D05C70474FF0FF30704770B50D46D5
:10885000064604460FCD0FC42B682360F26822B190
:10886000D38903F500739BB2D38170BDCB8903F527
:10887000007370B59BB20446CB810023E160836036
:1088800008460D46164629F04FFE266060602846D1
:1088900029F054FF20B1E06829F05BFF206106E079
:1088A000284629F040FFE36800B11B682361204699
:1088B000BDE87040FFF7E2BC70B504461646226280
:1088C0008B8883824A8803F00F03534383610B88AC
:1088D000C361084601F07AFEE269A369A18A1344E4
:1088E00001F00F01A361013301FB06225B1A9A42DA
:1088F0000546E2610ED350B1C389A3F500739BB264
:10890000C381C38903F4F0530BB92AF009F900239A
:10891000A38270BD01462046FFF7A8FF5DB1EB8939
:10892000A3F500739BB2EB81EB8903F4F05313B909
:1089300028462AF0F5F8002384F8243070BD10B5DD
:1089400086B0044601A8FFF791FF019B029A93426B
:1089500009D2059901B1C95C2046FFF7DBFD01A8EA
:10896000FFF79EFEF1E7049850B1C389A3F50073A9
:108970009BB2C381C38903F4F0530BB92AF0D0F83A
:1089800006B010BD70B514468268A24205460E4678
:1089900005D8A41A0460BDE87040FFF76FBCC0683A
:1089A00050B1C389A3F500739BB2C381C38903F49B
:1089B000F0530BB92AF0B4F8224631462846BDE8F8
:1089C0007040FFF753BF00002DE9F0438FB005461C
:1089D0000F46904629F095FE0446814628464CB144
:1089E00002F036FB0EAB424603F82C0D012118466F
:1089F000B8470FE129F057FE064600285ED0224610
:108A00008649284602F07CF9064629F068FE0446AD
:108A1000C0B14B464A464946304610F0B9F90546C2
:108A2000002E00F0E580F389A3F500739BB2F3817B
:108A3000F38903F4F053002B40F0DA8030462AF03B
:108A40006FF8D5E05EB1F389A3F500739BB2F381B3
:108A5000F38903F4F05313B930462AF061F8002289
:108A60006F49284602F04CF9002206466D49284617
:108A700002F046F98146B6B1A8B1304629F041FE70
:108A800088B1304602F0E4FA0546002D09DD424681
:108A900039464846FFF798FF013D04460028F4D1C7
:108AA00007E0012405E02A465F490320FEF7DEFACD
:108AB0000024494630462AF0E0FEABE0284629F083
:108AC000E0FE0446814620B33246294603A8FFF75C
:108AD000CDFE049B039A9A4209D202AA01A903A8D7
:108AE000FFF796FD424602990198B847F1E70698CC
:108AF000002800F08F80C389A3F500739BB2C38167
:108B0000C38903F4F053002B40F084802AF008F866
:108B100080E0284629F09FFD0446002834D04A46CC
:108B2000294603A8FFF7C8FEBDF8203003F00F0266
:108B3000012A17D1DB0615D46D887DB102AA01A9DF
:108B400003A8FFF765FD029B0198AB4288BF029521
:108B500042460299B847029BED1AEEE703A8FFF7D9
:108B60009CF857E003A8FFF716F90028F6D003A8F1
:108B7000FFF798FA42468DF80800012102A8B8478D
:108B800003A8FFF7C8F8EDE7284629F0A7FE04463A
:108B900040B30122294603A8FFF72EF8012403A8B9
:108BA000FFF70BF9D0B1CCB103A8FFF70BFB42469E
:108BB00039460546FFF708FF04465DB1EB89A3F58A
:108BC00000739BB2EB81EB8903F4F05313B9284691
:108BD00029F0A6FF03A8FFF7B7F8E0E703A8FFF71F
:108BE0006CF817E02A4611490320FEF73FFA11E01E
:108BF00085B1424639462846FFF7E6FEEB89A3F5E4
:108C000000739BB2EB81EB8903F4F05304460BB97C
:108C100028467BE720460FB0BDE8F083C21006006F
:108C2000CB100600443F0600D110060035110600A7
:108C300007B502AA002342F8043D0349FFF7C4FE2A
:108C4000019803B05DF804FB758202002DE9F0473E
:108C50008CB005460F46904629F053FD04468146E8
:108C6000284624B102F0F4F94146B84748E129F01A
:108C70001AFD064600285ED02246A349284602F087
:108C80003FF8064629F02BFD0446C0B14B464A4644
:108C90004946304610F07CF80546002E00F01E8153
:108CA000F389A3F500739BB2F381F38903F4F053C6
:108CB000002B40F01381304629F032FF0EE15EB107
:108CC000F389A3F500739BB2F381F38903F4F053A6
:108CD00013B9304629F024FF00228C49284602F0BF
:108CE0000FF8002206468A49284602F009F8814614
:108CF000B6B1A8B1304629F004FD88B1304602F083
:108D0000A7F90546002D09DD424639464846FFF7DA
:108D10009DFF013D04460028F4D107E0012405E051
:108D20002A467C490320FEF7A1F900244946304633
:108D30002AF0A3FDE4E0284629F0A3FD044681467D
:108D400018B33246294601A8FFF790FD019B029A0D
:108D5000934208D2059800B1C05C4146B84701A8CB
:108D6000FFF79EFCF2E70498002800F0C980C38951
:108D7000A3F500739BB2C381C38903F4F053002BA6
:108D800040F0BE8029F0CCFEBAE0284629F063FC12
:108D9000044600286ED04A46294601A8FFF78CFDFC
:108DA000BDF8183003F00F02012A55D103F010036B
:108DB0009BB2002B50D1DFF864A1B5F802901D469C
:108DC000B9F1000F44D0059808B1019BC05C414641
:108DD000B847019B029A01339342019335D39B1A02
:108DE0000193039B04981A44039230B38689CEB151
:108DF000013E0AEB0616F38903F500739BB2F3817B
:108E0000C389A3F500739BB2C381C38903F4F053F4
:108E10000BB929F085FE30460496059629F084FBAF
:108E2000029012E0C389A3F500739BB2C381C3898A
:108E300003F4F0530BB929F073FE019B039A0495D8
:108E40001344059502950393019509F1FF39B7E79E
:108E500001A8FEF722FF53E001A8FEF79CFF0028BF
:108E6000F6D001A8FFF71EF94146B84701A8FEF762
:108E700052FFF1E7284629F031FD044640B30122B4
:108E8000294601A8FEF7B8FE012401A8FEF795FFC8
:108E9000D0B1CCB101A8FFF795F942463946054655
:108EA000FFF7D4FE04465DB1EB89A3F500739BB2D6
:108EB000EB81EB8903F4F05313B9284629F030FE17
:108EC00001A8FEF741FFE0E701A8FEF7F6FE17E074
:108ED0002A4611490320FEF7C9F811E085B1424640
:108EE00039462846FFF7B2FEEB89A3F500739BB223
:108EF000EB81EB8903F4F05304460BB9284641E7B4
:108F000020460CB0BDE8F087C2100600CB1006006A
:108F1000443F0600D110060035110600F84F00202E
:108F20001FB50023019103920449029301AAFFF7A0
:108F30008DFE029805B05DF804FB00BF618202005F
:108F40002DE9F84307461B200D4629F023F9064674
:108F500000284AD0C389DFF8988003F500739BB2DC
:108F6000C3810446204629F06BFCB84281460AD3EF
:108F700025B13A462946204637F05BFF3946204660
:108F800029F0B4FA25E02DB102462946204637F0F3
:108F900050FF4D444946204629F0A8FA282029F0E0
:108FA000F9F8C9EB0707814698B1C8EB00031B111C
:108FB0000133A381E389A3F500739BB2E381E389C5
:108FC00003F4F0530BB14C46CCE7204629F0A8FD42
:108FD000F9E7E389A3F500739BB2E381E38903F426
:108FE000F05313B9204629F09BFD3046BDE8F883C5
:108FF000F84F002000000000262A2DE9F84305461E
:109000000E46144608D07C3A172A00F26C82B24B06
:10901000D34003F0010300E0012398464BB9A4F1CB
:1090200025020A2A06D840F22153D34003F0010357
:1090300000E00123A4F18A02072A1F4603D89523E2
:10904000D340DB0703D424F002033C2B22D1284673
:1090500029F057FB50B1304629F013FC30B12846B7
:1090600029F021FD90B1002130460DE0304629F075
:1090700048FB78B1284629F004FC58B1304629F065
:1090800012FD18B10021284601F0C8FA00F00108CD
:109090002DBB2DE255B94EB98A2C01D1012016E223
:1090A0008C2C4FF0000000F012821AE2BFB9284663
:1090B00029F027FB20B1304629F023FB78B907E0DF
:1090C000002DF8D0284629F09FFA0028F3D13BE183
:1090D0002EB1304629F098FA002800F03581B8F119
:1090E000000F45D0284601F0B3FF8046304601F01E
:1090F000AFFF5E2C074662D01EDC2B2C43D007DC72
:10910000262C59D02A2C44D0252C40F0988059E0A8
:109110002F2C44D009DC2D2C40F091804046C11703
:10912000B8EB070061EBE77135E03C2C7BD03E2CBF
:1091300040F085808045C4E18E2C79D008DC8A2CF3
:1091400052D08C2C5FD07C2C79D148EA000047E0CB
:10915000912C6FD004DC8F2C71D108FA00F03FE025
:10916000922C3BD0932C6AD128FA00F0002112E017
:10917000284629F098FC002863D0304629F093FC5B
:109180000028AFD15DE0C11710EB080041EBE8719A
:1091900001E088FB0001BDE8F84329F0F5B840463E
:1091A00037F0BCF8044638460D4637F0B7F80246AB
:1091B0000B462046294681E008EA000010E088EAD4
:1091C00000000DE020B198FBF0F007FB108007E0F5
:1091D0009FED3F0BBDE8F84329F03AB848FA00F09C
:1091E000BDE8F84329F046B880450AD1284629F061
:1091F0000BFA0446304629F007FA271A78427841DC
:1092000065E1002063E1804509D1284629F0FCF999
:109210000446304629F0F8F96040C0B200E0012071
:1092200000F0010053E18045ACBF002001204EE179
:10923000804542E18045B4BF0020012047E1274935
:109240004AE1284601F078FE304659EC108B01F0D7
:1092500073FE3C2C53EC102B5CD012DC2B2C23D057
:1092600008DC252C2DD02A2C6CD14046494637F0FD
:10927000BBF82AE02D2C1CD02F2C63D14046494648
:109280001CE08C2C2CD004DC3E2C51D08A2C27D016
:1092900058E08E2C45D0912C54D1404649464FF091
:1092A000010437F027FB49E04046494636F0EAFE24
:1092B0000BE04046494636F0E3FE06E037F0BEF9E3
:1092C00003E04046494617F0A5FA41EC100B81E750
:1092D000000000000000F87F0100C800F254060002
:1092E000404649464FF0010737F0E6FA00B9074615
:1092F0002846FFB229F088F900B126B1304629F09E
:1093000083F908B105B901278A2C14BF87F0010041
:109310003846DCE0404649464FF0010437F0D6FAC3
:109320000CE0404649464FF0010437F0D9FA05E019
:10933000404649464FF0010437F0E6FA00B90446CA
:10934000E0B2C4E06C49C7E0284629F0A2F948B170
:10935000284629F09EF90746304629F09AF98742B7
:1093600050D119E0284629F09EF90028F0D128466E
:1093700029F0B5F90028EBD1304629F08AF9002808
:10938000E6D1304629F08FF90028E1D1304629F0A6
:10939000A6F90028DCD135E08A2C01D08C2C31D103
:1093A000284629F03BF910B155B92E4618E0304651
:1093B00029F034F90028F7D1AE1B7042704111E05A
:1093C00076B12A6833689A4209D1AA88B3889A424A
:1093D00005D136892B89991B4E424E4100E000266B
:1093E00006F001008A2C72D08C2C02D180F0010092
:1093F0006DE0284629F04DF9404B4149002818BF3F
:10940000194669E028462AF035F8074630462AF022
:1094100031F8064607B130B9384631462AF02DFA00
:109420000020BDE8F8832B2C22D1384629F017FA0A
:1094300068B1FB89C3F34323012B08D17B8933B97E
:10944000FB8903F500739BB2FB813C4605E00021DC
:10945000384602F075F8044618B13146204601F04E
:10946000C2F9384631462AF008FA2046BDE8F883AA
:10947000002301461A46384633F016FC31460546AD
:1094800038462AF0FAF98A2C10D005DC3C2C11D091
:109490003E2C20D1002D14E08E2C0DD0912C14D018
:1094A0008C2C18D1281C18BF012010E0B5FA85F0CB
:1094B00040090CE0E80F0AE0002DCCBF002001209D
:1094C00005E0D4BF0020012001E0E843C00FBDE863
:1094D000F84328F0C7BE0B492046BDE8F843FEF725
:1094E000B5BFBDE8F883A4F15E025342534194E551
:1094F000002E7FF4F4ADCFE5661106005D0F060087
:10950000E40E0600846006002DE9F0410746884617
:1095100028F050FF054610B3394629F0BDFC04463B
:1095200060B9EB89A3F500739BB2EB81EB8903F47F
:10953000F053A3B9284629F0F3FA10E0284629F0A1
:1095400008F9EB89A3F500739BB2EB81EB8903F477
:10955000F053064633B9284629F0E2FA02E000202B
:10956000BDE8F0817EB9E389A3F500739BB2E38186
:10957000E38903F4F053002BF1D1204629F0D0FA0F
:109580003046BDE8F0813A464146304637F051FC5E
:109590002046BDE8F0812DE9F04180460F4620F0DD
:1095A000F5FC054610B90020BDE8F0810022114607
:1095B00020F0B4FB044648B9EB89A3F500739BB2D5
:1095C000EB81E88910F4F054EDD11EE0A7B12846F4
:1095D00000F0FCFF064678B14246394629F078FC97
:1095E000F389A3F500739BB2F381F38903F4F0537D
:1095F00013B9304629F094FAEB89A3F500739BB2B6
:10960000EB81EB8903F4F05313B9284629F088FA6B
:109610002046BDE8F08138B50546084628F02AFE08
:10962000044698B100231A460146284621F0E2FD7F
:10963000E389A3F500739BB2E381E38903F4F0535C
:10964000054623B9204629F06BFA00E038BD2846CC
:1096500038BD00002DE9F3470F4690460546002827
:1096600000F09E8029F01FF8044620B94F490120E0
:10967000FDF7FCFC95E0294601A8FEF743FF019E9B
:10968000002E7ED0F38903F500739BB24FF00009E2
:10969000F3813D464C46C84558DD2968304601F007
:1096A000A9FA00284ED0AB68002B4AD0019C1CB10F
:1096B000204601F009FC0446AB88033B182B33D845
:1096C000DFE803F00D320D320D32232B1B15323241
:1096D0003232323232323232323232320D00E389B9
:1096E000AA6803F500739BB2E38114601DE0204675
:1096F000D5F808A00EF0ECFE04E02046D5F808A04E
:1097000002F09CFB8AF800000EE02046D5F808A085
:1097100001F09EFCCAF8000006E02046D5F808A03B
:1097200001F00AFC8AED000B5CB1E389A3F500733C
:109730009BB2E381E38903F4F05313B9204629F087
:10974000EFF9012409F101090C35A4E72CB93246DF
:1097500017490120FDF78AFC00E00124F389A3F5F5
:1097600000739BB2F381F38903F4F05313B93046CD
:1097700029F0D6F901A8FEF7B0FE002C7FF47FAFE8
:1097800000E00124019860B1C389A3F500739BB286
:10979000C381C38903F4F0531BB929F0C1F900E078
:1097A0000124204602B0BDE8F08700BF6D1106001D
:1097B0008F11060010B5044628F091FF38B92046F5
:1097C00028F071FF0028034808BF002010BD0248A0
:1097D00010BD00BF09830200418302002DE9F0475C
:1097E00004468CB00F4690461E460025BD4204DA62
:1097F00098480EF005FC0135F8E70CB9964813E0DF
:10980000964DE38962899648611B09110131C3F3C2
:10981000432389B20EF0A6FB21464046FEF7A0FD89
:10982000B042A94603DA8F480EF0EAFB81E12046F8
:1098300028F0DCFE68B18C480EF0E2FBA08801380D
:1098400005EB0010731C4246B91CFFF7C7FF8748A1
:1098500004E0204628F0B8FE10B185480EF0D0FB99
:10986000204628F020FF08B1824827E0204628F053
:1098700076FE08B1804821E0204628F00AFF28B192
:1098800021687E480EF06EFB5D25A3E0204628F09F
:10989000C5FE28B1A288216879480EF063FB98E0E4
:1098A000204628F01CFF60B176480EF0A9FB204648
:1098B00028F00AFF002800F08C8073480EF0A0FB0F
:1098C00087E0204629F0E4F828B1204601F0C0FBEB
:1098D00001466E4879E0204629F0B9F828B12046C3
:1098E00001F0B6FB01466A486FE0204629F02EF8E9
:1098F00048B1204602F0A2FA664B6749002808BF2B
:109900001946664861E0204629F096F840B12046A5
:1099100001F012FB624853EC102B0EF023FB56E0D3
:10992000204629F004F810B121465E484DE020465B
:1099300028F086FE28B1204601F08AFB01465A48ED
:1099400043E0204628F087FE68B1204603F02AFE57
:1099500020B1204603F026FE014600E0534963880B
:109960002288534828E0204628F08BFF38B3A0898E
:1099700030B1013809EB001001F098F8451C00E007
:109980000125204628F0DAFE18B123680F3305EBD5
:109990001315204628F0D2FE4649474B00280CBF3D
:1099A0009A468A46204628F0BEFE4449002808BF51
:1099B0005146434823462A460EF0D4FA07E0E1898F
:1099C000404821F4F0510904090C0EF0CBFA20258F
:1099D00000E07D25204628F0CCFD18B1B4F9081030
:1099E0003948A4E0E38903F03F03102B08D1218913
:1099F000284B294A3548002914BF1146194696E0DC
:109A0000204628F032FE824650B1208910B101383C
:109A100009EB0010731C4246B91CFFF7DFFE84E01F
:109A2000204629F061F800287FD02146524601A83F
:109A3000FEF7E2F80124264407F1020901A8FEF727
:109A4000BCF9002844D101A8FEF737F9002C6CD1ED
:109A500064E000BF1C8D0600C1880600F84F00209E
:109A6000C711060056520600D5110600E611060081
:109A7000EE110600F4110600FE1106000F1206009A
:109A80001C12060038120600441206004C12060092
:109A900053120600A1110600C55006005E12060012
:109AA00066120600701206007A120600A711060060
:109AB0008F120600BB110600208D0600C0110600A3
:109AC000A4120600BC120600C7120600D11206003E
:109AD000FCF7F0FE0028B6D114B117480EF042FA98
:109AE00001A8FEF765F83346044642464946FFF7AB
:109AF00075FE5CB1E389A3F500739BB2E381E38952
:109B000003F4F05313B9204629F00AF80A480EF07E
:109B100029FA01A8FEF718F900248FE7A74204DD0F
:109B200006480EF06DFA0134F8E7054829460EF0B4
:109B300019FA0CB0BDE8F0871F8D06001C8D0600D9
:109B4000DC1206002DE9F04F151E91B081468A46C1
:109B50009B4640F385800146002205A8FEF74CF89D
:109B60006B1E6F1C0024039305A8FEF726F900283E
:109B70006FD005A8FEF726FB504506460BD1D94508
:109B800009D005A8FEF714F829F036FD044605A80B
:109B9000FEF793F862E0304628F085FD58B104AB3B
:109BA0000093039A5B4651463046FFF7CBFF0546CC
:109BB00060B9B84648E0304628F06BFD0028EED189
:109BC000304628F08CFD0028E9D13EE0DDF8108019
:109BD00047452CDD05A8FDF7EBFF07465CB1E3899F
:109BE000A3F500739BB2E381E38903F4F05313B947
:109BF000204628F095FF304628F055FD1A4C1B4BA7
:109C0000002808BF23462A463946184600F000FEC1
:109C100004466FB1FB89A3F500739BB2FB81FB89FE
:109C200003F4F05323B9384628F07AFF00E0B84631
:109C3000EB89A3F500739BB2EB81EB8903F4F0533E
:109C400013B9284628F06CFF474605A8FEF77CF8B4
:109C50008AE705A8FEF731F81A9B1F60204600E04E
:109C6000002011B0BDE8F08FE5120600DF120600FB
:109C700070B50D46B1FA81F1490900280CBF0C46B8
:109C800081F00104064630B32DB328F0E0FE20B188
:109C9000284628F0DCFE78B909E0304628F0CCFEF2
:109CA0000028F5D1304628F0ECFD60B106E02846EA
:109CB00028F0C2FE0028F5D001240CE0284628F048
:109CC000E0FD0028F8D1F389EA89534013F03F0FF3
:109CD0000CBF01240024ACB129468A223046FFF78C
:109CE0008BF9054602F0AAF804465DB1EB89A3F5AD
:109CF00000739BB2EB81EB8903F4F05313B9284650
:109D000028F00EFF204670BD8B2A38B503460D465D
:109D1000144601D08D2A0CD129461846FFF7A8FF1A
:109D20008B2C1CBF80F00100C0B2BDE8384028F089
:109D300099BABDE83840FFF75FB92DE9F0410C460C
:109D4000904601F0C1F80646204601F0BDF80746EE
:109D5000304629F0F9F80446384629F0F5F8394636
:109D60000546304629F089FD424629462046FFF740
:109D7000CBFF29460646204629F07FFD3046BDE848
:109D8000F0812DE9F04104468CB01B20884628F074
:109D900001FA074600285CD02146012201A8FDF700
:109DA0002BFF0124FCF786FD00284FD101A8FEF708
:109DB00004F800284AD001A8FDF7FAFE054628F06D
:109DC00046FE90B3B8F1000F04D01CB941463846A6
:109DD00000F009FD01A8FEF7F5F9064608B90024D0
:109DE00023E028F011FCA0B9304629F043FB0446DB
:109DF00078B10146384600F0F6FCE389A3F500731C
:109E00009BB2E381E38903F4F05313B9204628F0B1
:109E100087FEF389A3F500739BB2F381F48914F4F0
:109E2000F054DCD1304628F07BFE5DB1EB89A3F520
:109E300000739BB2EB81EB8903F4F05313B928460E
:109E400028F06EFE01A8FDF77FFFABE701A8FDF744
:109E500034FF38460CB0BDE8F081000070B50489CD
:109E6000002C31D01A4B013C2401E6181D46F28922
:109E700002F5007292B2F28182890189914204BF97
:109E8000002383812B199A8802815A899888013A84
:109E90005A81A8B10E4B013803EB0010C38903F5BA
:109EA00000739BB2C3810023C380C389A3F50073F1
:109EB0009BB2C381C38903F4F0530BB928F030FE81
:109EC0002B1900229A8000E02646304670BD00BF64
:109ED000F84F002070B51E4D0446E38923F080033F
:109EE0001B041B0CE381204628F0DDFC20B9204632
:109EF00028F0BBFB70B916E0A389002BF7D0013B1B
:109F000005EB0313DA8922F080021204120CDA81C5
:109F10009B89F2E72489CCB1013C05EB0414E38969
:109F20001A06DAD470BD204628F0DEFD70B1084D67
:109F300023892E4653B1013B1C012819C3891B06F6
:109F400001D5FFF7C7FF3444A388F3E770BD00BF16
:109F5000F84F00202DE9F74F6A4B01931A78002A39
:109F600040F0CB80674A684D02231370012443F20E
:109F7000D40704F1FF394FEA091905EB0900624ED5
:109F8000C38913F03F0F0DD0C28992B242F0800214
:109F9000C28128F0D3FB28B155F809200F3204EB19
:109FA00012139CB2631C9CB2BC42E2D9012443F25E
:109FB000D407651E2D0106EB0509B9F80E301B0606
:109FC00007D5B9F80E3013F4F05F02D04846FFF71A
:109FD00081FF484628F0B2FB20B173590F3304EBE0
:109FE0001314A4B20134A4B2BC42E2D9474F0024F6
:109FF0003C80A3464FF00108A14608F1FF352D0132
:10A0000006EB050A0AF10E03BAF80E00009310F0F1
:10A01000800F50464DD028F091FB18B37059009B2B
:10A020000F3000098344A3F800901CB1A4F8048009
:10A03000054602E0A7F80080FAE715F1FF350CD3DA
:10A04000441B4444A4B204F1FF3E06EB0E1EAEF8DE
:10A050000E90AAF80440F246EFE708EB00031FFA5F
:10A0600083F83AE0504628F000FBB0B1BAF8080097
:10A0700098B1254B013803EB0010B0F80EE01FFA41
:10A080008EF353B1B0F80EE01EF0800F02BFB0F8AF
:10A090000AE00EF1FF3EA0F80AE03544A5F80E9064
:10A0A00014B1A4F8048001E0A7F800800BF1010BC3
:10A0B00013E028F043FB30B172590F3208EB121352
:10A0C0001FFA83F80AE0009B188880B230B914B1F7
:10A0D000A4F8048001E0A7F80080544608F10103C9
:10A0E0001FFA83F843F2D402904586D9002304B1C5
:10A0F000A380019A5846137000E0002003B0BDE829
:10A10000F08F00BF5C4F0020F84F0020F44F00207C
:10A110002DE9F04F83B000AFFFF71CFF802383F3DE
:10A120001188ADF5027D4FF4007200216846C7F832
:10A1300004D04FF00009FCF705F95D4B4E4643F2A1
:10A14000D30B09F10104A4B2651E2D0103EB050A2E
:10A15000DFF85C81BAF80E1011F03F0F14D05046B2
:10A160003B6028F0EBFA3B6820B159590F3109EBFD
:10A17000111909E0BAF80E1011F4F05F01BF7A6806
:10A1800022F816400136F6B209F10109D945D8DDA9
:10A1900006F1FF3A002E39D106F1FF0A36E0454BB1
:10A1A0001D88ADB2002D79D0AE4277D305F1FF3EC8
:10A1B00008EB0E1E3F4ABEF804301380741E08EBF5
:10A1C000041494E80F004FF000098EE80F00A4F883
:10A1D0000E9009F10104A4B2013C240108EB040B28
:10A1E000BBF80E2093061AD109F1010943F2D303FB
:10A1F0009945EEDD97E80600002353520AF1FF333C
:10A20000BAF1000F01D10AF1FF039A464FEA4A035F
:10A210003B607B6833F81A60002EC0D13EE05846A0
:10A2200028F08CFA28B158F804300F3309EB1319D1
:10A23000DAE7584628F019FA28B1BBF80820B242EC
:10A2400008BFABF80850584628F02DFB28B108EBA2
:10A2500004029189B14208BF9581584628F044FC18
:10A2600058B108EB04021189B14208BF158108EB0F
:10A2700004029189B14208BF9581584628F0A4F99B
:10A280000028B1D008EB040344449A88B24208BFC6
:10A290009D80E388B34208BFE580A5E728F08CFAEB
:10A2A000002383F311880C37BD46BDE8F08F00BF53
:10A2B000F84F0020F44F002038B50D46441E14F826
:10A2C000011F19B12846FEF725F9F8E738BD00004F
:10A2D0002DE9F8433C4E858980460F4655B36C1EE8
:10A2E00006EB04142046E38903F500739BB2E38177
:10A2F00028F0ADFB78B12668BE4261D0E389A3F5B2
:10A3000000739BB2E381E38903F4F0539BB92046C9
:10A3100028F006FC0FE0E389E588A3F500739BB203
:10A32000E381E38903F4F053002BD7D1204628F0D2
:10A33000F7FBD3E72E46BE4201DA002440E00223B9
:10A3400096FBF3F6B7421CDD1F4E002DF5D0013D04
:10A350002D01AC19E38903F500739BB2E381AB597E
:10A360009F422DD0E389E588A3F500739BB2E3817A
:10A37000E38903F4F053002BE7D1204628F0D0FB0B
:10A38000E3E7B8F80850104E002DD6D0013D2D015E
:10A39000AC19E38903F500739BB2E381AB599F428B
:10A3A0000ED0E389A588A3F500739BB2E381E3890E
:10A3B00003F4F053002BE7D1204628F0B1FBE3E78C
:10A3C0002046BDE8F88300BFF84F002070B50E4E60
:10A3D00004890025B4B1601E06EB00100135C38965
:10A3E000848803F500739BB2C381C389A3F500730E
:10A3F0009BB2C381C38903F4F053002BEAD128F048
:10A400008FFBE7E7284670BDF84F002010B50446E3
:10A4100028F03FF910B104B3206810BD204628F0A1
:10A420001AF908B1608810BD204628F02AFA20B138
:10A430002046BDE8104028F0BABC204628F033F989
:10A4400020B12046BDE81040FFF7C0BF204628F0ED
:10A4500046F90028F5D1012010BD204610BD0000AE
:10A46000F8B504460D4628F09DF8C8B1204628F0FE
:10A4700008FA58B12046E68928F056F8B6B226F018
:10A480003F061630304380B2E08106E0E3899BB29C
:10A4900023F03F0343F00E03E3810023238103E015
:10A4A000208908B129F050F9002D50D0204628F01D
:10A4B000CEFA30B3284628F0CAFA28B1284628F048
:10A4C000E7FA00283CD105E0284628F03FFA0028AA
:10A4D000F4D135E02F6807F50043B3F5803F2FD264
:10A4E000E38928461BB223F03F0628F0B0FA002883
:10A4F00014BF0F22102246EA02039BB2E381278198
:10A5000026E0204628F0BDF9D0B1284628F09FFA71
:10A51000B0B1284628F0BCFA90B92E6806F5004381
:10A52000B3F5803F0CD22046E58927F0FDFFADB2A0
:10A5300025F03F051130284380B2E081268107E0F5
:10A540006B8901336B81034BED1A2D110135258188
:10A550002046F8BDF84F002010B5044628F034F826
:10A5600070B1638963B9204628F040F840B9238967
:10A5700033B9224603490520BDE81040FCF776BDFB
:10A5800010BD00BFEC12060010B5044628F01CF800
:10A5900008B9012010BD204628F004F80028F8D1A1
:10A5A0002089003018BF012010BD10B58AB00A46BE
:10A5B00001466846FEF780F96846FDF7D1FD04467E
:10A5C0006846FDF76AFB20460AB010BD70B5C38926
:10A5D000114E03F500739BB20446C381204628F058
:10A5E0003AF8B0B12589013D06EB0515EB8903F575
:10A5F00000739BB2EB81E389A3F500739BB2E38107
:10A60000E38903F4F05313B9204628F089FA2C4665
:10A61000E4E7204670BD00BFF84F002070B588B059
:10A620000E460022014603A8FEF720F9039D049B75
:10A63000079C9D420AD20CB1605D00E02046FDF708
:10A6400019FA18B103A8FEF72BF8EFE73CB1635DE8
:10A650002D2B01D02B2B02D103A8FEF721F8079B4D
:10A660000BB90A2525E0039A9C5C302CF9D103A88C
:10A67000FEF716F8079A8DF80440002312B10399EB
:10A68000525C00E01A4608A88DF8063001AB40F88D
:10A69000183D00218DF80520FDF7B0F9029A0DF163
:10A6A00005039A42054602D903A8FDF7F9FF002DDC
:10A6B000D7D00024039B049A934221D207980134F7
:10A6C00018B1C05C2E2800D1AEB9FDF771F9002891
:10A6D00001DB854210DC069808B9002021E0C3891F
:10A6E000A3F500739BB2C381C48914F4F054F4D170
:10A6F00028F016FAF1E7002603A8FDF7D1FFD9E705
:10A70000069850B1C389A3F500739BB2C381C38976
:10A7100003F4F0530BB928F003FA002CD4BF002047
:10A72000012008B070BD30B587B004460D4628F052
:10A73000A8F8B0B121462A4601A8FEF797F8059C73
:10A740000CB1019BE45C049860B1C389A3F500736C
:10A750009BB2C381C38903F4F0531BB928F0E0F91D
:10A7600000E00446204607B030BD70B58AB00D4603
:10A7700016460146002205A81C46FEF777F805A8F4
:10A78000FDF718FF324629466846FEF76FF8009B32
:10A79000019A93420BD254B1049901B1C95C05A846
:10A7A000FDF7B8FE6846FDF77BFF013CEFE7039835
:10A7B00050B1C389A3F500739BB2C381C38903F46D
:10A7C000F0530BB928F0ACF9089850B1C389A3F540
:10A7D00000739BB2C381C38903F4F0530BB928F013
:10A7E0009FF90AB070BD6FF000430022FFF7BDBFB4
:10A7F000F8B505461B200E46174627F0CBFC04464D
:10A8000020B13B4632462946FFF7AFFF2046F8BD50
:10A810000FB410B51B2086B027F0BCFC0446D8B19D
:10A820000146002201A8FEF721F801A8FDF7C2FEAB
:10A8300009AB0C48089A009301A9FCF79DF904980C
:10A8400050B1C389A3F500739BB2C381C38903F4DC
:10A85000F0530BB928F064F9204606B0BDE810406B
:10A8600004B07047B9A202000EB430B586B009AC8E
:10A87000014654F8045B002201A8FDF7F7FF01A888
:10A88000FDF798FE0C48009423462A4601A9FCF7E0
:10A8900073F9049850B1C389A3F500739BB2C381C7
:10A8A000C38903F4F0530BB928F03AF906B0BDE8B8
:10A8B000304003B0704700BFB9A2020030B587B086
:10A8C0000C4615460146002201A8FDF7CFFF01A85E
:10A8D000FDF770FE2544AC4205D014F8011B01A819
:10A8E000FDF718FEF7E7049850B1C389A3F500738C
:10A8F0009BB2C381C38903F4F0530BB928F010F95C
:10A9000007B030BD10B586B00C460022014601A844
:10A91000FDF7ACFF01A8FDF74DFE013C14F8011F47
:10A9200019B101A8FDF7F6FDF8E7049850B1C38905
:10A93000A3F500739BB2C381C38903F4F0530BB931
:10A9400028F0EEF806B010BD2DE9F84F0E4605468A
:10A95000002800F0A18061B1C08900F4807080B24D
:10A96000002800F09F80EB8923F480731B041B0CEC
:10A9700007E0C389DB0500F19180C3899BB243F4F2
:10A980008073EB81284627F070FE30B1DFF8189114
:10A99000B5F808800124CA462AE0284628F0A4F821
:10A9A0000028F3D12AE008F1FF331F0107EB090B60
:10A9B0003146BBF80E3003F500739BB2ABF80E3096
:10A9C0005846FFF7C1FF0444284628F08DF898B197
:10A9D000BBF804800AEB0703DA89A2F5007292B291
:10A9E000DA81DB8903F4F05313B9584628F098F85C
:10A9F000B8F1000FD7D10BE08046EBE7284627F0EF
:10AA00009DFE20B12C680F342409013400E001249C
:10AA1000284627F048FFD0B1AF89DFF88C80B7B166
:10AA2000781E08EB00100134C389878903F5007391
:10AA30009BB2C381C389A3F500739BB2C381C38951
:10AA400003F4F053002BEAD128F06AF8E7E7284630
:10AA500027F0BAFD28B3284627F0A4FD08BB2D89AE
:10AA6000FDB1114B013D03EB05153146EB8903F5B3
:10AA700000739BB2EB812846FFF766FFEB89A3F5D5
:10AA800000739BB2EB81EB8903F4F053044443B9A8
:10AA9000284628F045F804E0BDE8F88F0846BDE8F0
:10AAA000F88F2046BDE8F88FF84F002038B5002118
:10AAB0000546FFF749FF012104462846FFF744FFFA
:10AAC000204638BD2DE9F04186B007460D461446B4
:10AAD00098469DF8306027F0E6FE002852D04246A6
:10AAE000394601A8FDF7C2FE4EB30198029B984279
:10AAF000294629D215F8012B5AB3059B03B11B5CDB
:10AB0000A3F14100C0B2192898BF2033A2F141003F
:10AB100098BFDBB219289CBF2032D2B29A421AD118
:10AB200001A8FDF7BDFDE0E72B7801358BB1059855
:10AB3000A8B1825C9A4210D101A8FDF7B1FD019A3B
:10AB4000029B9A422946EFD32CB10B781BB9012006
:10AB500009E0002CFBD1059808B1019BC05C0B7883
:10AB60001B1A584258410446049850B1C389A3F5B2
:10AB700000739BB2C381C38903F4F0530BB927F070
:10AB8000CFFF204606B0BDE8F08100002DE9F74375
:10AB9000134D00890E462F464FF00108D8B10138F9
:10ABA000040104EB0509484627F07DFE80B100232F
:10ABB000CDF800801A4631464846FFF783FF38B18A
:10ABC000B9F80E3003F500739BB2A9F80E3003E01C
:10ABD0003C44A088E2E78146484603B0BDE8F083E4
:10ABE000F84F002007B500230093FFF76BFF03B079
:10ABF0005DF804FB0022FFF7F5BF00002DE9F347E5
:10AC00000B788DF8043006460F4690464BB14B78D2
:10AC10008DF805303BB18B788DF806302BB1CB78B1
:10AC200003E08DF805308DF80630DFF86890348940
:10AC30008DF80730CA46B4B1013C2501019A55F898
:10AC400009309A4205EB09040AD139462046FFF73C
:10AC5000D1FF28B1E38903F500739BB2E38114E0CF
:10AC60005544AC88E7E7B8F1000F0DD0384628F01E
:10AC7000B1FB214628F072FA054630B10146304654
:10AC800000F0CEFA2C4600E04446204602B0BDE873
:10AC9000F08700BFF84F002070B505460E461446F9
:10ACA00027F022FF08B9002070BD28460122314656
:10ACB000FFF7A4FF05460028F5D02146FFF7D0FB9B
:10ACC000EB89A3F500739BB2EB81EB8903F4F0539E
:10ACD00013B9284627F024FF204670BD08B5FFF7BA
:10ACE000DBFF60B1C389A3F500739BB2C381C38945
:10ACF00003F4F0531BB9BDE8084027F011BF08BDAD
:10AD000070B5164608B9002070BD003218BF012288
:10AD1000FFF774FF054600F0D7F8044658B956B15E
:10AD2000002DF0D0304627F035FA0446014628467B
:10AD3000FFF796FB00E05DB1EB89A3F500739BB2D2
:10AD4000EB81EB8903F4F05313B9284627F0E8FEB2
:10AD5000204670BD2DE9F8430F469046064608B9D7
:10AD6000002493E027F06CFC20B13046BDE8F843A6
:10AD700000F046BE304627F0FCFB28B1B6F90800CB
:10AD8000BDE8F84327F076BAF38903F03F03102BB0
:10AD900007D13089003018BF0120BDE8F84327F003
:10ADA00061BAF389DFF8EC9003F500739BB2F3818D
:10ADB0003546284627F008FCE8B1EB892C89A3F535
:10ADC00000739BB2EB81EB8903F4F05313B928466F
:10ADD00027F0A6FE2CB9AE42C2D13046FFF7BCFB2D
:10ADE00054E0013C09EB0415EB8903F500739BB2B9
:10ADF000EB81002FDDD1284627F0B1FB002844D09D
:10AE0000304627F0F3FB58B1B7887B1E214F07EB84
:10AE10000317B846FB8903F500739BB2FB8100E082
:10AE20000746284627F09BFB08B9002428E00022AB
:10AE300019492846FFF764FF064627F050FC58B929
:10AE4000002EF2D0F389A3F500739BB2F381F3894E
:10AE500013F4F054E9D110E000231A46414630467D
:10AE60000DF096FF04465EB1F389A3F500739BB223
:10AE7000F381F38903F4F05313B9304627F050FE01
:10AE80002946384628F0F9FC00E02C462046BDE86B
:10AE9000F88300BFF84F00206F590600002238B534
:10AEA00011460446FFF756FF05465CB1E389A3F55A
:10AEB00000739BB2E381E38903F4F05313B9204696
:10AEC00027F02EFE284638BD00220121FFF742BFA1
:10AED00038B50446FFF7F8FF05465CB1E389A3F5F2
:10AEE00000739BB2E381E38903F4F05313B9204666
:10AEF00027F016FE284638BD808950B1054B013831
:10AF000003EB0010C38903F500739BB2C381FFF705
:10AF1000DFBF7047F84F002008B5FFF7D9F9BDE84B
:10AF20000840FFF7D5BF08B528B1FFF72FFEBDE8F1
:10AF30000840FFF7CDBF08BD10B5044690B000280B
:10AF40003FD027F079FD10B194E8030056E0204689
:10AF500027F0A9FD18B1206835F0E0F94EE0204651
:10AF600027F097FB20B12046FFF750FA30B943E0B5
:10AF7000204627F070FB0028F5D113E0012811D1FD
:10AF8000204627F068FB014620B100212046FFF74C
:10AF90000CFB04E02046FFF7BFFFFFF799FF00F02E
:10AFA0003DF82BE0204627F06CFC50B1402269466A
:10AFB000204628F035FB402806D112490120FCF735
:10AFC00055F80020104919E09DF80030A3B10F4951
:10AFD000684635F054FF48B10D49684635F04FFFDB
:10AFE00038B16846002131F083FD07E000200949AF
:10AFF00004E00020084901E00020002141EC100B92
:10B0000010B010BDFE1206000000F87F750F06009C
:10B01000740F06000000F07F0000F0FF13B5044637
:10B02000FFF78AFF7CB1E389A3F500739BB2E3814C
:10B03000E38903F4F05333B920468DED000B27F07C
:10B040006FFD9DED000B51EC100B02B010BD000028
:10B05000F0B5044689B008B900206AE027F0D4FAB8
:10B060000028F9D1204627F01EFD08B1206860E0D5
:10B07000204627F0E5FA0028F8D1204627F009FB02
:10B0800020B12046FFF7C2F930B9E5E7204627F0A6
:10B09000E2FA0028F5D113E0012811D1204627F06B
:10B0A000DAFA014620B100212046FFF77EFA04E0DB
:10B0B0002046FFF731FFFFF70BFF00F049FD38E0B6
:10B0C000204627F0B9FCD0B194E8C00027F0004535
:10B0D0004FF0FF32184B3046294635F01FFC002850
:10B0E000BAD14FF0FF32144B3046294635F00CFCF4
:10B0F0000028B1D13046394635F0D6FC19E020465B
:10B1000027F0BFFB0028A7D001212046FFF786FAD1
:10B110000028A1D020226946204628F081FA202864
:10B1200004D106490120FBF7A1FF95E76846FCF72B
:10B130000AFD09B0F0BD00BFFFFFEF7F221306003C
:10B140002DE9F0428CB004460E461546994627F08C
:10B15000C5FB002858D00022214601A8FCF74CFD71
:10B1600001A8FCF72AFE044601A8002C49D0FCF7F0
:10B170001FFD0446B9F1000F06D101A8FDF722F822
:10B18000B04207460AD10FE027F061FC40B32046E9
:10B19000FFF75EFF129B9842EFDA21E09DB931463E
:10B1A000FEF766FD78B13E465EB1F389A3F5007304
:10B1B0009BB2F381F38903F4F05313B9304627F0BF
:10B1C000AFFC01A81DE05FB1FB89A3F500739BB242
:10B1D000FB81FB8903F4F05313B9384627F0A0FC38
:10B1E0005CB1E389A3F500739BB2E381E38903F4C7
:10B1F000F05313B9204627F093FC01A8FCF7A4FDF7
:10B20000AEE7FCF75AFD20460CB0BDE8F08207B56A
:10B2100000230093FFF794FF03B05DF804FB0000E8
:10B220004B8901332DE9F0414B8106460F4627F04B
:10B2300030FA60B1384627F00AFC40B13B680EB1E5
:10B24000326800E032469342A4BF01333360B589CF
:10B250004F4C002D60D0013D04EB05153046EB89C5
:10B2600003F500739BB2EB8127F013FAD8B138468F
:10B2700027F0EDFB78B1284627F0E9FB58B13846B6
:10B28000FFF7E6FE80462846FFF7E2FEC0EB080027
:10B29000002849DB07E0384627F0D9FB002843D1D6
:10B2A000284627F0D4FBA888D8B1013804EB001059
:10B2B000C38903F500739BB2C3813B1B1B11013390
:10B2C000C380031B1B110133BB80C389A3F500732B
:10B2D0009BB2C381C38903F4F05333B927F020FC38
:10B2E00003E03B1B1B110133B3813B1B2C1B1B11C8
:10B2F000241101330134AB80FC80EB89A3F500738A
:10B300009BB2EB81EB8903F4F053002B3ED128462E
:10B31000BDE8F04127F004BC3C1B24110134A4B269
:10B320003481B481BDE8F081EB89B5F80680A3F5DE
:10B3300000739BB2EB81EB8903F4F05313B92846F9
:10B3400027F0EEFB404627F0C3F8054600288ED1D3
:10B350003089013804EB00103D1BC38903F50073ED
:10B360009BB2C381C389A3F500739BB2C3812D1126
:10B37000C3890135ADB203F4F053C5800BB927F092
:10B38000CFFB3389BB803581BDE8F081BDE8F0811A
:10B39000F84F002038B50D46044608B10068FFE7B5
:10B3A00026F068FF294627F0D9FE054608B9002097
:10B3B00038BD01462046FFF733FFEB89A3F5007344
:10B3C0009BB2EB81EB8903F4F05313B9284627F0C5
:10B3D000A7FB002CEBD0206838BD73B5054601A84B
:10B3E0001646FDF78FF8019850B3FFF76DFD044640
:10B3F0000EB3014600222846FFF709FFD8B1C389E2
:10B40000A3F500739BB2C381C38903F4F0530BB956
:10B4100027F086FB5CB1E389A3F500739BB2E3815F
:10B42000E38903F4F05313B9204627F079FB01A810
:10B43000FDF753F8D7E721462846FFF7ABFFE9E7CA
:10B4400002B070BD38B50C46FFF7A4FF05465CB1ED
:10B45000E389A3F500739BB2E381E38903F4F0531E
:10B4600013B9204627F05CFB284638BD37B50446A3
:10B4700026F068FF054638B3214601A8FDF742F8DB
:10B48000019C0CB3E38903F500739BB2E381204672
:10B4900027F04DFA40B1002211462046FFF75AFC32
:10B4A00001462846FFF7CEFFE389A3F500739BB260
:10B4B000E381E38903F4F05313B9204627F030FB0E
:10B4C00001A8FDF70AF8DBE7284603B030BDF8B560
:10B4D00006460F461546FEF7FBFE044618B1294600
:10B4E000FEF7BEFF0BE0384626F0C4FE294627F0E3
:10B4F00035FE044688B101463046FFF791FEE389E8
:10B50000A3F500739BB2E381E38903F4F05323B9FD
:10B510002046BDE8F84027F003BBF8BD38B50C461F
:10B520000546104627F056FF214627F017FE044631
:10B5300018B101462846FFF773FE204638BD0000CB
:10B540002DE9F8430446884627F0F8F838B120463C
:10B550006FF000420021BDE8F843FFF749B9E089E8
:10B5600000F07F0026F016FE0546002800F0FD8062
:10B57000204627F053F9C8B9204627F070F948B99A
:10B58000204627F0D0F828B9204627F047F808B918
:10B59000042200E00A222146284635F04AFC2046D3
:10B5A00027F03CF840B100232B8105E023682B6095
:10B5B00063686B60A368AB60B8F1000F3FD02046B2
:10B5C00027F002F800283AD02389002B37D02046F4
:10B5D00026F0E8FF268908B12E8130E0644F013E55
:10B5E00007EB06160121F38903F500739BB2F38183
:10B5F0003046FFF7A5FF438901334381F389A3F563
:10B6000000739BB2F381F38903F4F053814613B9BD
:10B61000304627F085FAC7EB09073F1101372F8124
:10B62000B9F80E30A3F500739BB2A9F80E30B9F843
:10B630000E3003F4F05313B9484627F071FA204650
:10B6400027F031F9002851D0E389DFF8249103F580
:10B6500000739BB2E381EB8903F500739BB2EB812E
:10B660002F46A689002E3CD0013E09EB0616304637
:10B67000F38903F500739BB2F38127F0CFF8D8B1BB
:10B68000F08900F07F0026F085FD804668B13346E2
:10B6900003CBC8F80000C8F804101868C8F8080000
:10B6A000C9EB08031B110133BB813946204628F042
:10B6B000E4F847463446D4E701213046FFF740FF1F
:10B6C00078B12B4BC31A1B110133BB81C389A3F57E
:10B6D00000739BB2C381C38903F4F0530BB927F005
:10B6E0001FFA3946204628F0C8F83EE0204627F0E9
:10B6F000FBF9002839D0B8F1000F36D01C4F24894F
:10B70000B84694B3013C240104EB07090122B9F8BF
:10B710000E3003F500739BB2A9F80E30114648466F
:10B7200000F0E0F8064678B101462846FFF778FDBC
:10B73000F389A3F500739BB2F381F38903F4F0530B
:10B7400013B9304627F0ECF908EB0403DA899C883A
:10B75000A2F5007292B2DA81DB8903F4F053002B78
:10B76000CFD1484627F0DCF9CBE72846BDE8F8837F
:10B77000F84F002010B50446B8B143896BB926F0E4
:10B7800023FF014618B9204627F0E8FC0446E38968
:10B7900003F500739BB2E38107E00021FFF7D0FEC1
:10B7A0000021BDE8104027F0D9BC204610BD0000A4
:10B7B0002DE9F843DFF86880058907468946164673
:10B7C000DDB16C1E08EB04144946E38903F50073F0
:10B7D0009BB2E381204627F0F5FBF0B9E389A58809
:10B7E000A3F500739BB2E381E38903F4F053002BCC
:10B7F000E6D1204627F094F9E2E75EB1B9F1000FF7
:10B800000AD04846FFF7B6FF044601463846FFF720
:10B8100007FD02E0344600E04C462046BDE8F883D0
:10B82000F84F002070B505460E46144627F05CF927
:10B8300008B9002070BD284601223146FFF7B8FF45
:10B8400005460028F5D02146FEF70AFEEB89A3F550
:10B8500000739BB2EB81EB8903F4F05313B92846D4
:10B8600027F05EF9204670BD73B5064601A8FCF7C7
:10B8700049FE019CCCB1E38903F500739BB2E381DF
:10B880002046FFF721FB05462046FCF73DFD20B989
:10B890002A4621463046FFF7C5FF2046294627F0B5
:10B8A000ECFF01A8FCF719FEE3E702B070BD000051
:10B8B00070B5044608461646FFF75CFF054668B1BA
:10B8C00016B13146FEF7CCFD638902336381044B28
:10B8D000E41A24110134A4B2AC80EC80284670BD77
:10B8E000F84F00202DE9F843C3890E4605469BB268
:10B8F0001146F2B9C28902F03F020E3A022A04D878
:10B9000023F03F0343F0090313E0828942B16FF053
:10B910000042FEF76DFF0446C0B90020BDE8F88381
:10B9200023F03F039CB226F0FFFD1B3044EA0003E6
:10B930009BB203F07F0026F02DFC04460028ECD0DB
:10B940002B682360284626F0AEFF10BBF6B12B898A
:10B95000E3B1284626F026FE2D89B0B9274B681E94
:10B9600003EB0010C38903F500739BB2C3814389C5
:10B9700001334381C389A3F500739BB2C381C3899B
:10B9800003F4F0530BB927F0CBF825812046BDE82E
:10B99000F883AB89002BD9D0013BDFF860801F0111
:10B9A00007EB08090121B9F80E2002F5007292B2E6
:10B9B000A9F80E204846FFF7C3FD78B1C8EB000395
:10B9C0001B110133A381C389A3F500739BB2C3810B
:10B9D000C38903F4F0530BB927F0A2F808EB07036F
:10B9E000DA89A2F5007292B2DA81DB8903F4F053AE
:10B9F000002BABD1484627F093F8A7E7F84F00207B
:10BA000038B50446FFF724FB24890E4B013C03EBB9
:10BA100004140146E38903F500739BB2E3812046D9
:10BA2000FEF7C3FDE389A3F500739BB2E381E389CD
:10BA300003F4F053054613B9204627F071F8284661
:10BA400038BD00BFF84F002010B5044638B326F0CB
:10BA5000F7FD20B12046BDE81040FFF7D1BF2046DA
:10BA600026F087FD28B1B4F90800BDE8104026F0A3
:10BA700001BCE38903F03F03102B07D1208900307C
:10BA800018BF0120BDE8104026F0ECBB204626F090
:10BA90009BFD20B12089BDE8104026F019BD002093
:10BAA00010BD0000F8B5164601221F46FFF780FEC4
:10BAB000054626F089FD002835D02846FFF7C4FF4B
:10BAC000044626F04CFDA0B95CB1E389A3F50073F0
:10BAD0009BB2E381E38903F4F05313B9204627F0C6
